{
    "contractName": "Token",
    "abi": [
        {
            "inputs": [],
            "stateMutability": "nonpayable",
            "type": "constructor"
        },
        {
            "anonymous": false,
            "inputs": [
                {
                    "indexed": true,
                    "internalType": "address",
                    "name": "owner",
                    "type": "address"
                },
                {
                    "indexed": true,
                    "internalType": "address",
                    "name": "spender",
                    "type": "address"
                },
                {
                    "indexed": false,
                    "internalType": "uint256",
                    "name": "value",
                    "type": "uint256"
                }
            ],
            "name": "Approval",
            "type": "event"
        },
        {
            "anonymous": false,
            "inputs": [
                {
                    "indexed": true,
                    "internalType": "address",
                    "name": "from",
                    "type": "address"
                },
                {
                    "indexed": true,
                    "internalType": "address",
                    "name": "to",
                    "type": "address"
                },
                {
                    "indexed": false,
                    "internalType": "uint256",
                    "name": "value",
                    "type": "uint256"
                }
            ],
            "name": "Transfer",
            "type": "event"
        },
        {
            "inputs": [
                {
                    "internalType": "address",
                    "name": "owner",
                    "type": "address"
                },
                {
                    "internalType": "address",
                    "name": "spender",
                    "type": "address"
                }
            ],
            "name": "allowance",
            "outputs": [
                {
                    "internalType": "uint256",
                    "name": "",
                    "type": "uint256"
                }
            ],
            "stateMutability": "view",
            "type": "function"
        },
        {
            "inputs": [
                {
                    "internalType": "address",
                    "name": "spender",
                    "type": "address"
                },
                {
                    "internalType": "uint256",
                    "name": "amount",
                    "type": "uint256"
                }
            ],
            "name": "approve",
            "outputs": [
                {
                    "internalType": "bool",
                    "name": "",
                    "type": "bool"
                }
            ],
            "stateMutability": "nonpayable",
            "type": "function"
        },
        {
            "inputs": [
                {
                    "internalType": "address",
                    "name": "account",
                    "type": "address"
                }
            ],
            "name": "balanceOf",
            "outputs": [
                {
                    "internalType": "uint256",
                    "name": "",
                    "type": "uint256"
                }
            ],
            "stateMutability": "view",
            "type": "function"
        },
        {
            "inputs": [],
            "name": "decimals",
            "outputs": [
                {
                    "internalType": "uint8",
                    "name": "",
                    "type": "uint8"
                }
            ],
            "stateMutability": "view",
            "type": "function"
        },
        {
            "inputs": [
                {
                    "internalType": "address",
                    "name": "spender",
                    "type": "address"
                },
                {
                    "internalType": "uint256",
                    "name": "subtractedValue",
                    "type": "uint256"
                }
            ],
            "name": "decreaseAllowance",
            "outputs": [
                {
                    "internalType": "bool",
                    "name": "",
                    "type": "bool"
                }
            ],
            "stateMutability": "nonpayable",
            "type": "function"
        },
        {
            "inputs": [
                {
                    "internalType": "address",
                    "name": "spender",
                    "type": "address"
                },
                {
                    "internalType": "uint256",
                    "name": "addedValue",
                    "type": "uint256"
                }
            ],
            "name": "increaseAllowance",
            "outputs": [
                {
                    "internalType": "bool",
                    "name": "",
                    "type": "bool"
                }
            ],
            "stateMutability": "nonpayable",
            "type": "function"
        },
        {
            "inputs": [
                {
                    "internalType": "address",
                    "name": "_to",
                    "type": "address"
                },
                {
                    "internalType": "uint256",
                    "name": "_amount",
                    "type": "uint256"
                }
            ],
            "name": "mintPromotion",
            "outputs": [],
            "stateMutability": "nonpayable",
            "type": "function"
        },
        {
            "inputs": [],
            "name": "name",
            "outputs": [
                {
                    "internalType": "string",
                    "name": "",
                    "type": "string"
                }
            ],
            "stateMutability": "view",
            "type": "function"
        },
        {
            "inputs": [
                {
                    "internalType": "address",
                    "name": "_treasurer",
                    "type": "address"
                }
            ],
            "name": "setAdmin",
            "outputs": [],
            "stateMutability": "nonpayable",
            "type": "function"
        },
        {
            "inputs": [
                {
                    "internalType": "address",
                    "name": "_salesManager",
                    "type": "address"
                }
            ],
            "name": "setSalesManager",
            "outputs": [],
            "stateMutability": "nonpayable",
            "type": "function"
        },
        {
            "inputs": [],
            "name": "symbol",
            "outputs": [
                {
                    "internalType": "string",
                    "name": "",
                    "type": "string"
                }
            ],
            "stateMutability": "view",
            "type": "function"
        },
        {
            "inputs": [],
            "name": "totalSupply",
            "outputs": [
                {
                    "internalType": "uint256",
                    "name": "",
                    "type": "uint256"
                }
            ],
            "stateMutability": "view",
            "type": "function"
        },
        {
            "inputs": [
                {
                    "internalType": "address",
                    "name": "recipient",
                    "type": "address"
                },
                {
                    "internalType": "uint256",
                    "name": "amount",
                    "type": "uint256"
                }
            ],
            "name": "transfer",
            "outputs": [
                {
                    "internalType": "bool",
                    "name": "",
                    "type": "bool"
                }
            ],
            "stateMutability": "nonpayable",
            "type": "function"
        },
        {
            "inputs": [
                {
                    "internalType": "address payable",
                    "name": "_from",
                    "type": "address"
                },
                {
                    "internalType": "address",
                    "name": "_to",
                    "type": "address"
                },
                {
                    "internalType": "uint256",
                    "name": "_value",
                    "type": "uint256"
                }
            ],
            "name": "transfer",
            "outputs": [
                {
                    "internalType": "bool",
                    "name": "success",
                    "type": "bool"
                }
            ],
            "stateMutability": "nonpayable",
            "type": "function"
        },
        {
            "inputs": [
                {
                    "internalType": "address",
                    "name": "sender",
                    "type": "address"
                },
                {
                    "internalType": "address",
                    "name": "recipient",
                    "type": "address"
                },
                {
                    "internalType": "uint256",
                    "name": "amount",
                    "type": "uint256"
                }
            ],
            "name": "transferFrom",
            "outputs": [
                {
                    "internalType": "bool",
                    "name": "",
                    "type": "bool"
                }
            ],
            "stateMutability": "nonpayable",
            "type": "function"
        }
    ],
    "bytecode": "608060405234801561001057600080fd5b5060408051808201825260088152673930b51921b7b4b760c11b6020808301918252835180850190945260048452632920a51960e11b90840152815191929161005b91600391610092565b50805161006f906004906020840190610092565b50506005805433610100026001600160a81b031990911617601217905550610166565b82805461009e9061012b565b90600052602060002090601f0160209004810192826100c05760008555610106565b82601f106100d957805160ff1916838001178555610106565b82800160010185558215610106579182015b828111156101065782518255916020019190600101906100eb565b50610112929150610116565b5090565b5b808211156101125760008155600101610117565b600181811c9082168061013f57607f821691505b6020821081141561016057634e487b7160e01b600052602260045260246000fd5b50919050565b610ac2806101756000396000f3fe608060405234801561001057600080fd5b50600436106100f55760003560e01c806370a0823111610097578063ab8e553a11610066578063ab8e553a146101f4578063beabacc814610207578063dd62ed3e1461021a578063eef7df781461025357600080fd5b806370a082311461019d57806395d89b41146101c6578063a457c2d7146101ce578063a9059cbb146101e157600080fd5b806323b872dd116100d357806323b872dd1461014d578063313ce567146101605780633950935114610175578063704b6c021461018857600080fd5b806306fdde03146100fa578063095ea7b31461011857806318160ddd1461013b575b600080fd5b610102610266565b60405161010f919061089b565b60405180910390f35b61012b610126366004610908565b6102f8565b604051901515815260200161010f565b6002545b60405190815260200161010f565b61012b61015b366004610934565b61030e565b60055460405160ff909116815260200161010f565b61012b610183366004610908565b610361565b61019b610196366004610975565b610398565b005b61013f6101ab366004610975565b6001600160a01b031660009081526020819052604090205490565b6101026103d6565b61012b6101dc366004610908565b6103e5565b61012b6101ef366004610908565b61041c565b61019b610202366004610975565b610429565b61012b610215366004610934565b610467565b61013f610228366004610992565b6001600160a01b03918216600090815260016020908152604080832093909416825291909152205490565b61019b610261366004610908565b6104c6565b606060038054610275906109cb565b80601f01602080910402602001604051908101604052809291908181526020018280546102a1906109cb565b80156102ee5780601f106102c3576101008083540402835291602001916102ee565b820191906000526020600020905b8154815290600101906020018083116102d157829003601f168201915b5050505050905090565b6000610305338484610526565b50600192915050565b600061031b848484610650565b6001600160a01b038416600090815260016020908152604080832033808552925290912054610356918691610351908690610a1c565b610526565b5060015b9392505050565b3360008181526001602090815260408083206001600160a01b03871684529091528120549091610305918590610351908690610a33565b60055461010090046001600160a01b031633146103b457600080fd5b600680546001600160a01b0319166001600160a01b0392909216919091179055565b606060048054610275906109cb565b3360008181526001602090815260408083206001600160a01b03871684529091528120549091610305918590610351908690610a1c565b6000610305338484610650565b60055461010090046001600160a01b0316331461044557600080fd5b600780546001600160a01b0319166001600160a01b0392909216919091179055565b6006546000906001600160a01b0316331461048157600080fd5b6000821161048e57600080fd5b816104ae856001600160a01b031660009081526020819052604090205490565b1061035a576104be848484610650565b50600161035a565b6007546001600160a01b031633146104dd57600080fd5b600081116104ea57600080fd5b612710811115610518576064610501826005610a4b565b61050b9190610a6a565b6105159082610a33565b90505b61052282826107bb565b5050565b6001600160a01b03831661058d5760405162461bcd60e51b8152602060048201526024808201527f45524332303a20617070726f76652066726f6d20746865207a65726f206164646044820152637265737360e01b60648201526084015b60405180910390fd5b6001600160a01b0382166105ee5760405162461bcd60e51b815260206004820152602260248201527f45524332303a20617070726f766520746f20746865207a65726f206164647265604482015261737360f01b6064820152608401610584565b6001600160a01b0383811660008181526001602090815260408083209487168084529482529182902085905590518481527f8c5be1e5ebec7d5bd14f71427d1e84f3dd0314c0f7b2291e5b200ac8c7c3b92591015b60405180910390a3505050565b6001600160a01b0383166106b45760405162461bcd60e51b815260206004820152602560248201527f45524332303a207472616e736665722066726f6d20746865207a65726f206164604482015264647265737360d81b6064820152608401610584565b6001600160a01b0382166107165760405162461bcd60e51b815260206004820152602360248201527f45524332303a207472616e7366657220746f20746865207a65726f206164647260448201526265737360e81b6064820152608401610584565b6001600160a01b03831660009081526020819052604090205461073a908290610a1c565b6001600160a01b03808516600090815260208190526040808220939093559084168152205461076a908290610a33565b6001600160a01b038381166000818152602081815260409182902094909455518481529092918616917fddf252ad1be2c89b69c2b068fc378daa952ba7f163c4a11628f55a4df523b3ef9101610643565b6001600160a01b0382166108115760405162461bcd60e51b815260206004820152601f60248201527f45524332303a206d696e7420746f20746865207a65726f2061646472657373006044820152606401610584565b8060025461081f9190610a33565b6002556001600160a01b038216600090815260208190526040902054610846908290610a33565b6001600160a01b038316600081815260208181526040808320949094559251848152919290917fddf252ad1be2c89b69c2b068fc378daa952ba7f163c4a11628f55a4df523b3ef910160405180910390a35050565b600060208083528351808285015260005b818110156108c8578581018301518582016040015282016108ac565b818111156108da576000604083870101525b50601f01601f1916929092016040019392505050565b6001600160a01b038116811461090557600080fd5b50565b6000806040838503121561091b57600080fd5b8235610926816108f0565b946020939093013593505050565b60008060006060848603121561094957600080fd5b8335610954816108f0565b92506020840135610964816108f0565b929592945050506040919091013590565b60006020828403121561098757600080fd5b813561035a816108f0565b600080604083850312156109a557600080fd5b82356109b0816108f0565b915060208301356109c0816108f0565b809150509250929050565b600181811c908216806109df57607f821691505b60208210811415610a0057634e487b7160e01b600052602260045260246000fd5b50919050565b634e487b7160e01b600052601160045260246000fd5b600082821015610a2e57610a2e610a06565b500390565b60008219821115610a4657610a46610a06565b500190565b6000816000190483118215151615610a6557610a65610a06565b500290565b600082610a8757634e487b7160e01b600052601260045260246000fd5b50049056fea26469706673582212201213f128a084f42476a2c9349ded7435c13f23839cc5df1645e981fe456616b164736f6c634300080a0033",
    "sourcePath": "/Users/rajeshmenon/blockchain/raj2-coin/raj2Coin.sol",
    "compiler": {
        "name": "solc",
        "version": "0.8.10+commit.fc410830"
    },
    "functionHashes": {
        "allowance(address,address)": "dd62ed3e",
        "approve(address,uint256)": "095ea7b3",
        "balanceOf(address)": "70a08231",
        "decimals()": "313ce567",
        "decreaseAllowance(address,uint256)": "a457c2d7",
        "increaseAllowance(address,uint256)": "39509351",
        "mintPromotion(address,uint256)": "eef7df78",
        "name()": "06fdde03",
        "setAdmin(address)": "704b6c02",
        "setSalesManager(address)": "ab8e553a",
        "symbol()": "95d89b41",
        "totalSupply()": "18160ddd",
        "transfer(address,address,uint256)": "beabacc8",
        "transfer(address,uint256)": "a9059cbb",
        "transferFrom(address,address,uint256)": "23b872dd"
    },
    "gasEstimates": {
        "creation": {
            "codeDepositCost": "550800",
            "executionCost": "infinite",
            "totalCost": "infinite"
        },
        "external": {
            "allowance(address,address)": "infinite",
            "approve(address,uint256)": "24637",
            "balanceOf(address)": "2557",
            "decimals()": "2334",
            "decreaseAllowance(address,uint256)": "26993",
            "increaseAllowance(address,uint256)": "26996",
            "mintPromotion(address,uint256)": "infinite",
            "name()": "infinite",
            "setAdmin(address)": "26805",
            "setSalesManager(address)": "26738",
            "symbol()": "infinite",
            "totalSupply()": "2349",
            "transfer(address,address,uint256)": "infinite",
            "transfer(address,uint256)": "51332",
            "transferFrom(address,address,uint256)": "infinite"
        }
    }
}